S011000053494D4F4E534159532E737265634D
S1130000FDC000001AC10000B0C40000C8C4000054
S113001014C1000012C1000010C100000EC1000094
S11300200CC100000AC1000008C1000006C10000A4
S113003004C1000002C1000000C10000FEC00000B5
S1130040FCC00000FAC00000F8C00000F6C00000C8
S1130050F4C00000F2C00000F0C00000EEC00000D8
S1130060ECC00000EAC00000E8C00000E6C00000E8
S1130070E4C00000E2C00000E0C00000DEC00000F8
S1130080DCC00000DAC00000D8C00000D6C0000008
S1130090D4C00000D2C00000D0C00000CEC0000018
S11300A0CCC00000CAC00000C8C00000C6C0000028
S11300B0C4C00000C2C00000C0C00000BEC0000038
S11300C0BCC00000BAC00000B8C00000B6C0000048
S11300D0B4C00000B2C00000B0C00000AEC0000058
S11300E0ACC00000AAC00000A8C00000A6C0000068
S11300F0A4C00000A2C00000A0C000009EC0000078
S113010068C4000082C4000098C0000096C00000CB
S113011094C0000092C0000090C000008EC0000097
S11301208CC000008AC0000088C0000086C00000A7
S113013084C0000082C0000080C000007EC00000B7
S11301407CC000007AC0000078C0000076C00000C7
S113015074C0000072C0000070C000006EC00000D7
S11301606CC000006AC0000068C0000066C00000E7
S113017064C0000062C0000060C000005EC00000F7
S11301805CC000005AC0000058C0000056C0000007
S113019054C0000052C0000050C000004EC0000017
S11301A04CC000004AC0000048C0000046C0000027
S11301B044C0000042C0000040C000003EC0000037
S11301C03CC000003AC0000038C0000036C0000047
S11301D034C0000032C0000030C000002EC0000057
S11301E02CC000002AC0000028C0000026C0000067
S11301F024C0000022C0000020C0000011241FBE43
S1130200CFEFCDBFDFE5DEBF00E00CBF10E2A0E022
S1130210B0E2E6EBFEE000E00BBF02C007900D92F7
S1130220A630B107D9F720E2A6E0B0E201C01D92E2
S1130230A032B207E1F71AD43CC6E2CEAF92BF9225
S1130240CF92DF92EF92FF920F931F93813009F4C4
S113025064C038F0823009F4BCC0833009F415C19D
S11302606FC1E0E0F6E0948181E089278483F09116
S11302700520A0910420EF2FEE0FEE0B2A2F3F2F25
S11302804E2F5E2F6E2F7E2F8E2F9E2F05E032D5A0
S1130290AA2EBF2ECE2EDE2EEE2EFE2E0E2F1E2FBB
S11302A04BD5A22EB32EC42ED52EE62EF72EB82F64
S11302B0192F06E01FD50B2F3FD503E01BD5AA2E1F
S11302C0BF2ECE2EDE2EEE2EFE2E0E2F1E2F2BD563
S11302D007E010D529513C4F4F4F5F4F6F4F7F4F71
S11302E08F4F9F4F68D420E030E84BEB55E4C1D3E7
S11302F02DD4F22FE32F8F2F9E2FA42FB52F0197EC
S1130300A109B1090097A105B105C9F7E0E0F6E03C
S1130310948181E08927848313C1E0E0F6E094812D
S113032082E089278483F0910520A0910420EF2F97
S1130330EE0FEE0B2A2F3F2F4E2F5E2F6E2F7E2FA8
S11303408E2F9E2F05E0D6D4AA2EBF2ECE2EDE2EC3
S1130350EE2EFE2E0E2F1E2FEFD4A22EB32EC42E61
S1130360D52EE62EF72EB82F192F06E0C3D40B2F67
S1130370E3D403E0BFD4AA2EBF2ECE2EDE2EEE2E63
S1130380FE2E0E2F1E2FCFD407E0B4D429513C4F9C
S11303904F4F5F4F6F4F7F4F8F4F9F4F0CD420E0D5
S11303A030E84BEB55E465D3D1D3F22FE32F8F2FF5
S11303B09E2FA42FB52F0197A109B1090097A1057C
S11303C0B105C9F7E0E0F6E0948182E089278483EF
S11303D0B7C0E0E0F6E0948184E089278483F0915B
S11303E00520A0910420EF2FEE0FEE0B2A2F3F2FB4
S11303F04E2F5E2F6E2F7E2F8E2F9E2F05E07AD4E8
S1130400AA2EBF2ECE2EDE2EEE2EFE2E0E2F1E2F49
S113041093D4A22EB32EC42ED52EE62EF72EB82FAB
S1130420192F06E067D40B2F87D403E063D4AA2ED8
S1130430BF2ECE2EDE2EEE2EFE2E0E2F1E2F73D4AA
S113044007E058D429513C4F4F4F5F4F6F4F7F4FB8
S11304508F4F9F4FB0D320E030E84BEB55E409D3E6
S113046075D3F22FE32F8F2F9E2FA42FB52F019733
S1130470A109B1090097A105B105C9F7E0E0F6E0CB
S1130480948184E0892784835BC0E0E0F6E0948172
S113049088E089278483F0910520A0910420EF2F20
S11304A0EE0FEE0B2A2F3F2F4E2F5E2F6E2F7E2F37
S11304B08E2F9E2F05E01ED4AA2EBF2ECE2EDE2E0A
S11304C0EE2EFE2E0E2F1E2F37D4A22EB32EC42EA8
S11304D0D52EE62EF72EB82F192F06E00BD40B2FAE
S11304E02BD403E007D4AA2EBF2ECE2EDE2EEE2E62
S11304F0FE2E0E2F1E2F17D407E0FCD329513C4F9C
S11305004F4F5F4F6F4F7F4F8F4F9F4F54D320E01C
S113051030E84BEB55E4ADD219D3F22FE32F8F2FF4
S11305209E2FA42FB52F0197A109B1090097A1050A
S1130530B105C9F7E0E0F6E0948188E08927848377
S11305401F910F91FF90EF90DF90CF90BF90AF90ED
S1130550089544D483709078992324F401978C6F80
S11305609F6F01960895CF93DF93C0910820D09197
S11305700920EFDFCC0FDD1FC25FDF4D8883998335
S113058080910820909109200196809308209093EF
S11305900920DF91CF9108958F929F92AF92BF92DD
S11305A0CF92DF92EF92FF920F931F93CF93DF933B
S11305B08091082090910920181619060CF07CC02F
S11305C00F2EFEE08F2EF0E29F2EF02DC0E0D0E043
S11305D0F401819191914F018130910569F01CF4EE
S11305E0892B39F011C08230910549F0039751F0FD
S11305F00BC080E023DE08C081E020DE05C082E07D
S11306001DDE02C083E01ADEF0910520A0910420D3
S1130610EF2FEE0FEE0B2A2F3F2F4E2F5E2F6E2F54
S11306207E2F8E2F9E2F05E065D3AA2EBF2ECE2EB1
S1130630DE2EEE2EFE2E0E2F1E2F7ED3A22EB32ED6
S1130640C42ED52EE62EF72EB82F192F06E052D33E
S11306500B2F72D303E04ED3AA2EBF2ECE2EDE2E46
S1130660EE2EFE2E0E2F1E2F5ED307E043D329510C
S11306703C4F4F4F5F4F6F4F7F4F8F4F9F4F9BD2DA
S113068020E030E84BEB55E4F4D160D2F22FE32FB5
S11306908F2F9E2FA42FB52F0197A109B109009781
S11306A0A105B105C9F721968091082090910920F0
S11306B0C817D9070CF48CCFDF91CF911F910F91FC
S11306C0FF90EF90DF90CF90BF90AF909F908F906E
S11306D00895AF92BF92CF92DF92EF92FF920F9361
S11306E01F93CF93DF9388EC90E080930420909342
S11306F00520C5E0D0E080E0A1DD81E09FDD83E05E
S11307009DDD82E09BDDF0910520A0910420EF2F78
S1130710EE0FEE0B2A2F3F2F4E2F5E2F6E2F7E2FC4
S11307208E2F9E2F05E0E6D2AA2EBF2ECE2EDE2ED1
S1130730EE2EFE2E0E2F1E2FFFD2A22EB32EC42E6F
S1130740D52EE62EF72EB82F192F06E0D3D20B2F75
S1130750F3D203E0CFD2AA2EBF2ECE2EDE2EEE2E63
S1130760FE2E0E2F1E2FDFD207E0C4D229513C4F9C
S11307704F4F5F4F6F4F7F4F8F4F9F4F1CD220E0E3
S113078030E84BEB55E475D1E1D1F22FE32F8F2FF5
S11307909E2FA42FB52F0197A109B1090097A10598
S11307A0B105C9F780E04ADD81E048DD83E046DD3C
S11307B082E044DDF0910520A0910420EF2FEE0F9C
S11307C0EE0B2A2F3F2F4E2F5E2F6E2F7E2F8E2F54
S11307D09E2F05E08FD2AA2EBF2ECE2EDE2EEE2E19
S11307E0FE2E0E2F1E2FA8D2A22EB32EC42ED52E2F
S11307F0E62EF72EB82F192F06E07CD20B2F9CD2B1
S113080003E078D2AA2EBF2ECE2EDE2EEE2EFE2EA2
S11308100E2F1E2F88D207E06DD229513C4F4F4F27
S11308205F4F6F4F7F4F8F4F9F4FC5D120E030E810
S11308304BEB55E41ED18AD1F22FE32F8F2F9E2F3D
S1130840A42FB52F0197A109B1090097A105B105FE
S1130850C9F72197209709F04ECFDF91CF911F91CF
S11308600F91FF90EF90DF90CF90BF90AF900895DD
S1130870F894A0E4B6E08C918D7F8C93E0E6F6E0EA
S113088080818D7F80831A968C911A9782601A9644
S11308908C931A971B968C911B9784601B968C9350
S11308A01B978285816082878385826083878AE340
S11308B051968C93519752968C935297808B818B3F
S11308C085E019968C938187E0EAF0E08281876065
S11308D082838FEFE0E0F6E081830895CF93DF9386
S11308E0789410921E2010921F20A0910820B0919D
S11308F009201A161B06ACF540910C2050910D20CE
S1130900C0910A20D0910B2020910620309107201D
S1130910EEE0F0E260E070E0819191918417950738
S113092021F421153105D1F302C0C1E0D0E0CB019F
S113093001968A179B0724F4BC0120E030E0ECCF39
S1130940C0930A20D0930B20109206201092072007
S11309501A161B0614F0A1E0B0E0A0931E20B09379
S11309601F20F894DF91CF9108951F920F920FB634
S11309700F9211248F939F93F89410920C2010924D
S11309800D2081E090E080930620909307207894D6
S11309909F918F910F900FBE0F901F9018951F92EB
S11309A00F920FB60F9211248F939F93F89481E0C6
S11309B090E080930C2090930D20809306209093D8
S11309C0072078949F918F910F900FBE0F901F90E6
S11309D018951F920F920FB60F9211248F939F9325
S11309E0F89482E090E080930C2090930D2081E0B5
S11309F090E0809306209093072078949F918F91A4
S1130A000F900FBE0F901F9018951F920F920FB664
S1130A100F9211248F939F93F89483E090E0809336
S1130A200C2090930D2081E090E080930620909319
S1130A30072078949F918F910F900FBE0F901F9075
S1130A401895CF93DF93C8E0D0E08DDDA5DD46DFB8
S1130A5080910A2090910B20019711F43ADE03C093
S1130A602197209791F7DF91CF91089501DFE9DF76
S1130A70FECF0CD005C1FDD040F0F4D030F021F40D
S1130A805F3F19F0D6C051112FC1D9C00AD198F3D4
S1130A909923C9F35523B1F3951B550BBB27AA27FB
S1130AA062177307840738F09F5F5F4F220F331F6D
S1130AB0441FAA1FA9F333D00E2E3AF0E0E830D039
S1130AC091505040E695001CCAF729D0FE2F27D03C
S1130AD0660F771F881FBB1F261737074807AB070A
S1130AE0B0E809F0BB0B802DBF01FF2793585F4F7F
S1130AF02AF09E3F510568F09CC0F6C05F3FECF3BE
S1130B00983EDCF3869577956795B795F7959F5F43
S1130B10C9F7880F911D9695879597F90895E1E097
S1130B20660F771F881FBB1F621773078407BA07F6
S1130B3020F0621B730B840BBA0BEE1F88F7E09551
S1130B400895BEE304D008F490E80895BFE3222793
S1130B503327A901AED058F19F5740F1B91738F1A6
S1130B60BFE3B91B9927B8503AF4660F771F881F63
S1130B70991FB395D2F316C0B8504AF0232F342FDF
S1130B80452F562F672F782F8827B850BAF7B85FAC
S1130B9049F08695779567955795479537952795A5
S1130BA0BA95B9F70EF44ED088940895889460E00D
S1130BB070E0CB010895E894F92F96EBFF2381F0C0
S1130BC0121613061406440B9395F695879577959C
S1130BD0679557954040FF23B9F71BC0992708959F
S1130BE0882351F49850D2F7872B762F652F542FF2
S1130BF0432F322F20E0B1F3121613061406440BD0
S1130C0088233AF09A95440F551F661F771F881F53
S1130C10CAF755234AF4440F551F11F460FF04C06A
S1130C206F5F7F4F8F4F9F4F880F9695879597F9EA
S1130C30089597F99F6780E870E060E008959FEF5A
S1130C4080EC0895909580957095609550954095A9
S1130C50309521953F4F4F4F5F4F6F4F7F4F8F4FD1
S1130C609F4F089500240A941616170618060906BD
S1130C70089500240A94121613061406050608950E
S1130C80092E0394000C11F4882352F0BB0F40F496
S1130C90BF2B11F460FF04C06F5F7F4F8F4F9F4FD6
S1130CA0089557FD9058440F551F59F05F3F71F058
S1130CB04795880F97FB991F61F09F3F79F08795BF
S1130CC00895121613061406551FF2CF4695F1DF48
S1130CD008C0161617061806991FF1CF86957105D8
S1130CE0610508940895E894BB2766277727CB010C
S1130CF097F908950F93083090F0982F872F762F47
S1130D00652F542F432F322F22270850F4CF220F60
S1130D10331F441F551F661F771F881F991F0A958D
S1130D20B2F70F9108952A0D3B1D4C1D5D1D6E1DDC
S1130D307F1D801F911F08952A193B094C095D09E5
S1130D406E097F09800B910B08958F929F92AF9249
S1130D50BF92CF92DF92EF92FF92CF93DF93EC0199
S1130D60688179818A819B8161157105810591056D
S1130D7021F464E279ED8BE597E02DE133EF41E076
S1130D8050E03AD049015A019B01AC01A7EAB1E411
S1130D904FD06B017C01ACEEB4EFA501940154D0AB
S1130DA0C60ED71EE81EF91EF7FE06C081E0C81A5B
S1130DB0D108E10880E8F80AC882D982EA82FB8275
S1130DC0C6019F77DF91CF91FF90EF90DF90CF9096
S1130DD0BF90AF909F908F900895B7CF80E090E23E
S1130DE0B4CFA0E0B0E08093002090930120A093C2
S1130DF00220B09303200895052E97FB16F4009467
S1130E000FD057FD05D024D007FC02D046F408C00B
S1130E1050954095309521953F4F4F4F5F4F089522
S1130E2090958095709561957F4F8F4F9F4F089552
S1130E3031D0A59F900DB49F900DA49F800D911D5E
S1130E4011240895B7FFF4CFF3DF821B930B0895A9
S1130E50A1E21A2EAA1BBB1BFD010DC0AA1FBB1FBA
S1130E60EE1FFF1FA217B307E407F50720F0A21B2C
S1130E70B30BE40BF50B661F771F881F991F1A9499
S1130E8069F760957095809590959B01AC01BD01C3
S1130E90CF010895A29FB001B39FC001A39F700D1D
S1130EA0811D1124911DB29F700D811D1124911D6E
S1090EB00895F894FFCF41
S1090EB601000000C80069
S9030A42B0
