:10000000FDC000001CC1000041C700000C945E0848
:1000100016C1000014C1000012C1000010C1000090
:100020000EC100000CC100000AC1000008C10000A0
:1000300006C1000004C1000002C1000000C10000B0
:10004000FEC00000FCC00000FAC00000F8C00000C4
:10005000F6C00000F4C00000F2C00000F0C00000D4
:10006000EEC00000ECC00000EAC00000E8C00000E4
:10007000E6C00000E4C00000E2C00000E0C00000F4
:10008000DEC00000DCC00000DAC00000D8C0000004
:10009000D6C00000D4C00000D2C00000D0C0000014
:1000A000CEC00000CCC00000CAC00000C8C0000024
:1000B000C6C00000C4C00000C2C00000C0C0000034
:1000C000BEC00000BCC00000BAC00000B8C0000044
:1000D000B6C00000B4C00000B2C00000B0C0000054
:1000E000AEC00000ACC00000AAC00000A8C0000064
:1000F000A6C00000A4C00000A2C00000A0C0000074
:100100000C94A0080C9473099AC0000098C00000D9
:1001100096C0000094C0000092C0000090C0000093
:100120008EC000008CC000008AC0000088C00000A3
:1001300086C0000084C0000082C0000080C00000B3
:100140007EC000007CC000007AC0000078C00000C3
:1001500076C0000074C0000072C0000070C00000D3
:100160006EC000006CC000006AC0000068C00000E3
:1001700066C0000064C0000062C0000060C00000F3
:100180005EC000005CC000005AC0000058C0000003
:1001900056C0000054C0000052C0000050C0000013
:1001A0004EC000004CC000004AC0000048C0000023
:1001B00046C0000044C0000042C0000040C0000033
:1001C0003EC000003CC000003AC0000038C0000043
:1001D00036C0000034C0000032C0000030C0000053
:1001E0002EC000002CC000002AC0000028C0000063
:1001F00026C0000024C0000022C0000011241FBE41
:10020000CFEFCDBFDFE5DEBF00E00CBF10E2A0E026
:10021000B0E2EAEAF9E100E00BBF02C007900D92FC
:10022000AA30B107D9F721E2AAE0B0E201C01D92DD
:10023000AC3AB207E1F70E947C0A0C94D30CE0CEF2
:100240008FEF809370008093710080937200809391
:1002500073008093740080937500809376000895F6
:10026000CF93DF93FC01709620E030E0C62FD0E002
:10027000DE01022E02C0B595A7950A94E2F7A0FD13
:1002800050832F5F3F4F31962830310589F740FF6B
:100290000AC041FF03C0FC01658302C0FC01668304
:1002A000FC01618302C0FC016283DF91CF9108955C
:1002B00043E050E061E080EE97E0D2DF43E050E0C1
:1002C00062E080EE97E0CCDF43E050E060E180E662
:1002D00096E0C6DF41E050E460E280E696E0C0DFF1
:1002E00040E05BE160E280E896E0BADF40E05BE19D
:1002F00062E080EA96E0B4DF40E05BE164E080EA3F
:1003000096E0AEDF43E050E062E080E696E0A8DFF2
:1003100043E050E068E080E696E0A2DF43E050E092
:1003200068E080EA96E09CDF43E050E061E080E630
:1003300096E096DF43E050E068E080E096E090DFF2
:1003400041E050E060E180E896E08ADF43E050E081
:1003500062E080E696E084DF43E050E068E080E61B
:1003600096E07EDF40E050E064E080E696E078DFF3
:1003700043E050E060E180EA96E072DF40E050E068
:1003800061E080E096E06CDF40E050E064E080E017
:1003900096E066DF40E050E062E080E296E060DFF9
:1003A00043E050E068E080E496E05ADF40E050E04F
:1003B00064E080E496E054DF43E050E068E080E6EB
:1003C00096E04EDF40E050E064E080E696E048DFF3
:1003D00043E050E068E080E896E042DF40E050E033
:1003E00064E080E896E03CCF08950E94350C83706D
:1003F0009078992324F401978C6F9F6F019608954C
:1004000080910E2090910F20019729F410920E20D8
:1004100010920F20089581E090E080930E20909339
:100420000F200895CF93DF93C091AA21D091AB21E3
:10043000DCDFCC0FDD1FCA5EDF4D8883998380919E
:10044000AA219091AB2101968093AA219093AB2190
:10045000DF91CF9108954F925F926F927F928F922A
:100460009F92AF92BF92CF92DF92EF92FF920F9343
:100470001F93CF93DF9388EC90E0809308209093B4
:1004800009206894882482F8912CC0E0D6E0689412
:10049000662462F86894772473F85524539468941A
:1004A000442441F88C8186258C838C8187258C831C
:1004B0008C8185258C838C8184258C83F091092007
:1004C000A0910820EF2FEE0FEE0B2A2F3F2F4E2F7B
:1004D0005E2F6E2F7E2F8E2F9E2F05E00E94C10B68
:1004E000AA2EBF2ECE2EDE2EEE2EFE2E0E2F1E2F6D
:1004F0000E94E30BA22EB32EC42ED52EE62EF72E8D
:10050000B82F192F06E00E94C10B0B2F0E94E30B9E
:1005100003E00E94C10BAA2EBF2ECE2EDE2EEE2EA1
:10052000FE2E0E2F1E2F0E94DA0B07E00E94C10B39
:1005300029513C4F4F4F5F4F6F4F7F4F8F4F9F4F12
:100540000E94220B20E030E84BEB55E4D9D70E9403
:10055000ED0AF22FE32F8F2F9E2FA42FB52F019797
:10056000A109B1090097A105B105C9F78C818625BC
:100570008C838C8187258C838C8185258C838C81D1
:1005800084258C83F0910920A0910820EF2FEE0F95
:10059000EE0B2A2F3F2F4E2F5E2F6E2F7E2F8E2F8A
:1005A0009E2F05E00E94C10BAA2EBF2ECE2EDE2E5E
:1005B000EE2EFE2E0E2F1E2F0E94E30BA22EB32E28
:1005C000C42ED52EE62EF72EB82F192F06E00E9446
:1005D000C10B0B2F0E94E30B03E00E94C10BAA2E5C
:1005E000BF2ECE2EDE2EEE2EFE2E0E2F1E2F0E94A2
:1005F000DA0B07E00E94C10B29513C4F4F4F5F4F70
:100600006F4F7F4F8F4F9F4F0E94220B20E030E8AB
:100610004BEB55E475D7E1D7F22FE32F8F2F9E2FA9
:10062000A42FB52F0197A109B1090097A105B10524
:10063000C9F781E0881A91088114910409F032CF3A
:100640008091AA219091AB2120910C2030910D2016
:100650008217930724F080930C2090930D206091D3
:100660000C2080E090E00E94530C81E090E08093A9
:10067000042090930520DF91CF911F910F91FF905F
:10068000EF90DF90CF90BF90AF909F908F907F9032
:100690006F905F904F9008950BDED2DD80E090E088
:1006A0000E94430C90E080930C2090930D20F894CE
:1006B000A0E4B6E08C918D7F8C93E0E6F6E080813B
:1006C0008D7F80831A968C911A9782601A968C93EC
:1006D0001A971B968C911B9784601B968C931B9783
:1006E0008285816082878385826083878AE35196D1
:1006F0008C93519752968C935297808B818B85E087
:1007000019968C938187E0EAF0E08281876082838A
:10071000E0E0F6E08FEF818386818E7F8683089507
:10072000AF92BF92CF92DF92EF92FF920F931F93FF
:10073000813009F467C008F4C1C0823021F08330F1
:1007400009F418C172C1E0E0F6E0948184E08927E1
:100750008483F0910920A0910820EF2FEE0FEE0B7B
:100760002A2F3F2F4E2F5E2F6E2F7E2F8E2F9E2FE4
:1007700005E00E94C10BAA2EBF2ECE2EDE2EEE2E3D
:10078000FE2E0E2F1E2F0E94E30BA22EB32EC42E80
:10079000D52EE62EF72EB82F192F06E0F2D70B2F05
:1007A0000E94E30B03E0EDD7AA2EBF2ECE2EDE2E45
:1007B000EE2EFE2E0E2F1E2FFDD707E0E2D7295179
:1007C0003C4F4F4F5F4F6F4F7F4F8F4F9F4F3AD7E9
:1007D00020E030E84BEB55E493D6FFD6F22FE32F21
:1007E0008F2F9E2FA42FB52F0197A109B109009734
:1007F000A105B105C9F7E0E0F6E0948184E089271E
:10080000848313C1E0E0F6E0948182E08927848349
:10081000F0910920A0910820EF2FEE0FEE0B2A2F68
:100820003F2F4E2F5E2F6E2F7E2F8E2F9E2F05E097
:10083000A8D7AA2EBF2ECE2EDE2EEE2EFE2E0E2FE7
:100840001E2FC1D7A22EB32EC42ED52EE62EF72EE4
:10085000B82F192F06E095D70B2FB5D703E091D706
:10086000AA2EBF2ECE2EDE2EEE2EFE2E0E2F1E2FE9
:10087000A1D707E086D729513C4F4F4F5F4F6F4FAD
:100880007F4F8F4F9F4FDED620E030E84BEB55E493
:1008900037D6A3D6F22FE32F8F2F9E2FA42FB52F5D
:1008A0000197A109B1090097A105B105C9F7E0E0D9
:1008B000F6E0948182E089278483B7C0E0E0F6E027
:1008C000948181E089278483F0910920A0910820F8
:1008D000EF2FEE0FEE0B2A2F3F2F4E2F5E2F6E2F96
:1008E0007E2F8E2F9E2F05E04CD7AA2EBF2ECE2E08
:1008F000DE2EEE2EFE2E0E2F1E2F65D7A22EB32E2D
:10090000C42ED52EE62EF72EB82F192F06E039D794
:100910000B2F59D703E035D7AA2EBF2ECE2EDE2EB1
:10092000EE2EFE2E0E2F1E2F45D707E02AD7295177
:100930003C4F4F4F5F4F6F4F7F4F8F4F9F4F82D630
:1009400020E030E84BEB55E4DBD547D6F22FE32F20
:100950008F2F9E2FA42FB52F0197A109B1090097C2
:10096000A105B105C9F7E0E0F6E0948181E08927AF
:1009700084835BC0E0E0F6E0948188E0892784838B
:10098000F0910920A0910820EF2FEE0FEE0B2A2FF7
:100990003F2F4E2F5E2F6E2F7E2F8E2F9E2F05E026
:1009A000F0D6AA2EBF2ECE2EDE2EEE2EFE2E0E2F2F
:1009B0001E2F09D7A22EB32EC42ED52EE62EF72E2B
:1009C000B82F192F06E0DDD60B2FFDD603E0D9D6C0
:1009D000AA2EBF2ECE2EDE2EEE2EFE2E0E2F1E2F78
:1009E000E9D607E0CED629513C4F4F4F5F4F6F4FAE
:1009F0007F4F8F4F9F4F26D620E030E84BEB55E4DA
:100A00007FD5EBD5F22FE32F8F2F9E2FA42FB52F5D
:100A10000197A109B1090097A105B105C9F7E0E067
:100A2000F6E0948188E0892784831F910F91FF90DD
:100A3000EF90DF90CF90BF90AF9008958F929F92EC
:100A4000AF92BF92CF92DF92EF92FF920F931F93DC
:100A5000CF93DF938091AA219091AB2118161906AC
:100A60000CF07CC00F2EF6E18F2EF0E29F2EF02DC1
:100A7000C0E0D0E0F401819191914F018130910566
:100A800099F01CF4892B69F011C08230910519F09E
:100A9000039721F00BC082E043DE08C083E040DE14
:100AA00005C080E03DDE02C081E03ADEF091092021
:100AB000A0910820EF2FEE0FEE0B2A2F3F2F4E2F85
:100AC0005E2F6E2F7E2F8E2F9E2F05E05AD6AA2ED8
:100AD000BF2ECE2EDE2EEE2EFE2E0E2F1E2F73D606
:100AE000A22EB32EC42ED52EE62EF72EB82F192FF8
:100AF00006E047D60B2F67D603E043D6AA2EBF2EBB
:100B0000CE2EDE2EEE2EFE2E0E2F1E2F53D607E0FB
:100B100038D629513C4F4F4F5F4F6F4F7F4F8F4F0C
:100B20009F4F90D520E030E84BEB55E4E9D455D504
:100B3000F22FE32F8F2F9E2FA42FB52F0197A109FE
:100B4000B1090097A105B105C9F721968091AA21A5
:100B50009091AB21C817D9070CF48CCFDF91CF91BE
:100B60001F910F91FF90EF90DF90CF90BF90AF90CB
:100B70009F908F900895AF92BF92CF92DF92EF92A5
:100B8000FF920F931F93813009F464C008F4BEC034
:100B9000823021F0833009F415C16FC1E0E0F6E046
:100BA000948184E089278483F0910720A091062016
:100BB000EF2FEE0FEE0B2A2F3F2F4E2F5E2F6E2FB3
:100BC0007E2F8E2F9E2F05E0DCD5AA2EBF2ECE2E97
:100BD000DE2EEE2EFE2E0E2F1E2FF5D5A22EB32EBC
:100BE000C42ED52EE62EF72EB82F192F06E0C9D524
:100BF0000B2FE9D503E0C5D5AA2EBF2ECE2EDE2EB3
:100C0000EE2EFE2E0E2F1E2FD5D507E0BAD5295178
:100C10003C4F4F4F5F4F6F4F7F4F8F4F9F4F12D5BE
:100C200020E030E84BEB55E46BD4D7D4F22FE32F20
:100C30008F2F9E2FA42FB52F0197A109B1090097DF
:100C4000A105B105C9F7E0E0F6E0948184E08927C9
:100C5000848313C1E0E0F6E0948182E089278483F5
:100C6000F0910720A0910620EF2FEE0FEE0B2A2F18
:100C70003F2F4E2F5E2F6E2F7E2F8E2F9E2F05E043
:100C800080D5AA2EBF2ECE2EDE2EEE2EFE2E0E2FBD
:100C90001E2F99D5A22EB32EC42ED52EE62EF72EBA
:100CA000B82F192F06E06DD50B2F8DD503E069D530
:100CB000AA2EBF2ECE2EDE2EEE2EFE2E0E2F1E2F95
:100CC00079D507E05ED529513C4F4F4F5F4F6F4FAD
:100CD0007F4F8F4F9F4FB6D420E030E84BEB55E469
:100CE0000FD47BD4F22FE32F8F2F9E2FA42FB52F5D
:100CF0000197A109B1090097A105B105C9F7E0E085
:100D0000F6E0948182E089278483B7C0E0E0F6E0D2
:100D1000948181E089278483F0910720A0910620A7
:100D2000EF2FEE0FEE0B2A2F3F2F4E2F5E2F6E2F41
:100D30007E2F8E2F9E2F05E024D5AA2EBF2ECE2EDD
:100D4000DE2EEE2EFE2E0E2F1E2F3DD5A22EB32E02
:100D5000C42ED52EE62EF72EB82F192F06E011D56A
:100D60000B2F31D503E00DD5AA2EBF2ECE2EDE2EB1
:100D7000EE2EFE2E0E2F1E2F1DD507E002D5295177
:100D80003C4F4F4F5F4F6F4F7F4F8F4F9F4F5AD406
:100D900020E030E84BEB55E4B3D31FD4F22FE32F20
:100DA0008F2F9E2FA42FB52F0197A109B10900976E
:100DB000A105B105C9F7E0E0F6E0948181E089275B
:100DC00084835BC0E0E0F6E0948188E08927848337
:100DD000F0910720A0910620EF2FEE0FEE0B2A2FA7
:100DE0003F2F4E2F5E2F6E2F7E2F8E2F9E2F05E0D2
:100DF000C8D4AA2EBF2ECE2EDE2EEE2EFE2E0E2F05
:100E00001E2FE1D4A22EB32EC42ED52EE62EF72E01
:100E1000B82F192F06E0B5D40B2FD5D403E0B1D4E9
:100E2000AA2EBF2ECE2EDE2EEE2EFE2E0E2F1E2F23
:100E3000C1D407E0A6D429513C4F4F4F5F4F6F4FAD
:100E40007F4F8F4F9F4FFED320E030E84BEB55E4B0
:100E500057D3C3D3F22FE32F8F2F9E2FA42FB52F5D
:100E60000197A109B1090097A105B105C9F7E0E013
:100E7000F6E0948188E0892784831F910F91FF9089
:100E8000EF90DF90CF90BF90AF9008951F920F9298
:100E90000FB60F9211240BB60F92AF92BF92CF9262
:100EA000DF92EF92FF920F931F932F933F934F93F5
:100EB0005F936F937F938F939F93AF93BF93EF93C2
:100EC000FF93F8948091042090910520019709F0F8
:100ED000D4C08AE09BE8A2E0B0E00197A109B10983
:100EE0000097A105B105C9F7E0E0F6E0948184E040
:100EF00089278483948181E089278483948188E091
:100F000089278483948182E089278483F091092052
:100F1000A0910820EF2FEE0FEE0B2A2F3F2F4E2F20
:100F20005E2F6E2F7E2F8E2F9E2F05E02AD4AA2EA5
:100F3000BF2ECE2EDE2EEE2EFE2E0E2F1E2F43D4D3
:100F4000A22EB32EC42ED52EE62EF72EB82F192F93
:100F500006E017D40B2F37D403E013D4AA2EBF2EEC
:100F6000CE2EDE2EEE2EFE2E0E2F1E2F23D407E0C9
:100F700008D429513C4F4F4F5F4F6F4F7F4F8F4FDA
:100F80009F4F60D320E030E84BEB55E4B9D225D336
:100F9000F22FE32F8F2F9E2FA42FB52F0197A1099A
:100FA000B1090097A105B105C9F7E0E0F6E0948129
:100FB00084E089278483948181E0892784839481D4
:100FC00088E089278483948182E089278483F09153
:100FD0000920A0910820EF2FEE0FEE0B2A2F3F2FB4
:100FE0004E2F5E2F6E2F7E2F8E2F9E2F05E0C9D3A2
:100FF000AA2EBF2ECE2EDE2EEE2EFE2E0E2F1E2F52
:10100000E2D3A22EB32EC42ED52EE62EF72EB82F65
:10101000192F06E0B6D30B2FD6D303E0B2D3AA2EF6
:10102000BF2ECE2EDE2EEE2EFE2E0E2F1E2FC2D364
:1010300007E0A7D329513C4F4F4F5F4F6F4F7F4F72
:101040008F4F9F4FFFD220E030E84BEB55E458D252
:10105000C4D2F22FE32F8F2F9E2FA42FB52F0197ED
:10106000A109B1090097A105B105C9F781E090E098
:1010700080930A2090930B2006C080E07CDD1092C4
:10108000122010921320FF91EF91BF91AF919F9189
:101090008F917F916F915F914F913F912F911F9110
:1010A0000F91FF90EF90DF90CF90BF90AF900F9097
:1010B0000BBE0F900FBE0F901F9018951F920F92AE
:1010C0000FB60F9211240BB60F922F933F934F93AD
:1010D0005F936F937F938F939F93AF93BF93EF93A0
:1010E000FF93F8948091042090910520019771F46A
:1010F00087D980E090E00196883A21E69207D9F7F7
:101100008091042090910520019739F081E090E0D2
:1011100080931220909313202EDDFF91EF91BF91C9
:10112000AF919F918F917F916F915F914F913F917F
:101130002F910F900BBE0F900FBE0F901F90189520
:101140001F920F920FB60F9211240BB60F924F926F
:101150005F926F927F928F929F92AF92BF92CF9247
:10116000DF92EF92FF920F931F932F933F934F9332
:101170005F936F937F938F939F93AF93BF93CF931F
:10118000DF93EF93FF93F8948091042090910520D2
:10119000019709F07EC080910C2090910D2002975C
:1011A0000CF47EC0812C912CC0E0D6E068946624BB
:1011B00062F86894772473F855245394689444240F
:1011C00041F88C8186258C838C8187258C838C814A
:1011D00085258C838C8184258C83F0910920A091B6
:1011E0000820EF2FEE0FEE0B2A2F3F2F4E2F5E2FF2
:1011F0006E2F7E2F8E2F9E2F05E0C3D2AA2EBF2EDC
:10120000CE2EDE2EEE2EFE2E0E2F1E2FDCD2A22E86
:10121000B32EC42ED52EE62EF72EB82F192F06E0AA
:10122000B0D20B2FD0D203E0ACD2AA2EBF2ECE2E3E
:10123000DE2EEE2EFE2E0E2F1E2FBCD207E0A1D2E8
:1012400029513C4F4F4F5F4F6F4F7F4F8F4F9F4FF5
:10125000F9D120E030E84BEB55E452D1BED1F22F6A
:10126000E32F8F2F9E2FA42FB52F0197A109B1092E
:101270000097A105B105C9F78FEF881A980A8091E8
:101280000C2090910D200197881699060CF499CFA7
:1012900007C082E090E080931220909313206BDCD3
:1012A000FF91EF91DF91CF91BF91AF919F918F917E
:1012B0007F916F915F914F913F912F911F910F916E
:1012C000FF90EF90DF90CF90BF90AF909F908F9066
:1012D0007F906F905F904F900F900BBE0F900FBE5E
:1012E0000F901F9018951F920F920FB60F92112416
:1012F0000BB60F922F933F934F935F936F937F9310
:101300008F939F93AF93BF93EF93FF93F894809144
:10131000042090910520019749F460E080E090E07E
:10132000C2D210920C2010920D2007C083E090E0F2
:1013300080931220909313201EDCFF91EF91BF91B8
:10134000AF919F918F917F916F915F914F913F915D
:101350002F910F900BBE0F900FBE0F901F901895FE
:10136000109214201092152080E090E001968238AF
:1013700026E09207D9F780911220909113209923AB
:1013800064F480911420909115200196809314208C
:1013900090931520883E93403CF30895CF93DF93BC
:1013A0001092A8211092A9218091AA219091AB219D
:1013B0001816190664F5CFEFDFEFD2DF8091A82170
:1013C0009091A921FC01EE0FFF1FEA5EFF4D4081C5
:1013D000518120911220309113204217530739F088
:1013E00081E090E08093A6219093A72110C0C09344
:1013F0001220D093132001968093A8219093A921C5
:101400002091AA213091AB2182179307B4F2F8946E
:10141000DF91CF910895EF92FF920F931F93CF9397
:10142000DF9310920A2010920B2010920420109249
:1014300005201092AA211092AB211092A6211092A1
:10144000A7218FEF9FEF8093122090931320C8EC79
:10145000D0E00F2EFAE6EF2EF02D6894FF24F2F87C
:1014600001E010E08E2D9F2DA02FB12F0197A10933
:10147000B1090097A105B105C9F71092102010928B
:1014800011200E941202DADA789488DF8091A62176
:101490009091A721019719F40E942B0203C0219774
:1014A000209701F77894DF91CF911F910F91FF90D2
:1014B000EF90089580910E2090910F200197A1F454
:1014C00082E390E080930820909309200E94F50128
:1014D00027D988EC90E080930820909309201092FF
:1014E0000A2010920B20089580910A2090910B20E1
:1014F000019709F490CF0895CFD87894DBDFFECF21
:101500000CD005C1FDD040F0F4D030F021F45F3FA5
:1015100019F0D6C051112FC1D9C00AD198F399231F
:10152000C9F35523B1F3951B550BBB27AA276217A7
:101530007307840738F09F5F5F4F220F331F441FEC
:10154000AA1FA9F333D00E2E3AF0E0E830D0915024
:101550005040E695001CCAF729D0FE2F27D0660F11
:10156000771F881FBB1F261737074807AB07B0E850
:1015700009F0BB0B802DBF01FF2793585F4F2AF066
:101580009E3F510568F09CC0F6C05F3FECF3983E6B
:10159000DCF3869577956795B795F7959F5FC9F7C3
:1015A000880F911D9695879597F90895E1E0660F4C
:1015B000771F881FBB1F621773078407BA0720F0C5
:1015C000621B730B840BBA0BEE1F88F7E09508952E
:1015D000BEE304D008F490E80895BFE32227332740
:1015E000A901AED058F19F5740F1B91738F1BFE3C8
:1015F000B91B9927B8503AF4660F771F881F991FB7
:10160000B395D2F316C0B8504AF0232F342F452F8C
:10161000562F672F782F8827B850BAF7B85F49F050
:101620008695779567955795479537952795BA95F8
:10163000B9F70EF44ED088940895889460E070E075
:10164000CB010895E894F92F96EBFF2381F0121651
:1016500013061406440B9395F69587957795679531
:1016600057954040FF23B9F71BC099270895882359
:1016700051F49850D2F7872B762F652F542F432F94
:10168000322F20E0B1F3121613061406440B882300
:101690003AF09A95440F551F661F771F881FCAF7A7
:1016A00055234AF4440F551F11F460FF04C06F5FC7
:1016B0007F4F8F4F9F4F880F9695879597F9089585
:1016C00097F99F6780E870E060E008959FEF80ECF5
:1016D00008959095809570956095509540953095BA
:1016E00021953F4F4F4F5F4F6F4F7F4F8F4F9F4F12
:1016F000089500240A941616170618060906089578
:1017000000240A9412161306140605060895092EDD
:101710000394000C11F4882352F0BB0F40F4BF2B4C
:1017200011F460FF04C06F5F7F4F8F4F9F4F08958C
:1017300057FD9058440F551F59F05F3F71F0479582
:10174000880F97FB991F61F09F3F79F08795089567
:10175000121613061406551FF2CF4695F1DF08C086
:10176000161617061806991FF1CF869571056105A3
:1017700008940895E894BB2766277727CB0197F94B
:1017800008950F93083090F0982F872F762F652FAC
:10179000542F432F322F22270850F4CF220F331F0C
:1017A000441F551F661F771F881F991F0A95B2F7A0
:1017B0000F9108952A0D3B1D4C1D5D1D6E1D7F1D53
:1017C000801F911F08952A193B094C095D096E0974
:1017D0007F09800B910B08958F929F92AF92BF92D9
:1017E000CF92DF92EF92FF92CF93DF93EC0168816B
:1017F00079818A819B81611571058105910521F4AB
:1018000064E279ED8BE597E02DE133EF41E050E0C4
:101810006DD049015A019B01AC01A7EAB1E482D025
:101820006B017C01ACEEB4EFA501940187D0C60E2C
:10183000D71EE81EF91EF7FE06C081E0C81AD108BF
:10184000E10880E8F80AC882D982EA82FB82C601F0
:101850009F77DF91CF91FF90EF90DF90CF90BF9077
:10186000AF909F908F900895B7CF80E090E2B4CF73
:10187000A0E0B0E08093002090930120A09302208C
:10188000B0930320089503D0808199270895E0EC58
:10189000F1E0378537FDFDCF348538603487FC01B2
:1018A000E050F04F0895262FE0ECF1E0378537FD4A
:1018B000FDCF3485377F3487378531FF09C036E364
:1018C000328738ED34BF31E03387378537FDFDCFC0
:1018D00033E33287808391831282248325E3228736
:1018E00028ED31E024BF338701960895052E97FB3C
:1018F00016F400940FD057FD05D024D007FC02D079
:1019000046F408C050954095309521953F4F4F4F74
:101910005F4F089590958095709561957F4F8F4F9B
:101920009F4F089531D0A59F900DB49F900DA49F17
:10193000800D911D11240895B7FFF4CFF3DF821BB2
:10194000930B0895A1E21A2EAA1BBB1BFD010DC02B
:10195000AA1FBB1FEE1FFF1FA217B307E407F5075F
:1019600020F0A21BB30BE40BF50B661F771F881F3B
:10197000991F1A9469F760957095809590959B01D1
:10198000AC01BD01CF010895A29FB001B39FC0017A
:10199000A39F700D811D1124911DB29F700D811D9B
:0A19A0001124911D0895F894FFCF63
:0A19AA000100000001004B00960050
:00000001FF
